{
  "address": "0x78dff224E543B2eE5FbcF917F400caa315C4FbD6",
  "abi": [
    {
      "inputs": [
        {
          "internalType": "address",
          "name": "_privateWrapperFactory",
          "type": "address"
        },
        {
          "internalType": "address",
          "name": "_illuminexRouter",
          "type": "address"
        },
        {
          "internalType": "address",
          "name": "_ethUSDT",
          "type": "address"
        },
        {
          "internalType": "uint48",
          "name": "_FEE_RATE",
          "type": "uint48"
        },
        {
          "internalType": "uint48",
          "name": "_FEE_RATE_TPSL",
          "type": "uint48"
        }
      ],
      "stateMutability": "nonpayable",
      "type": "constructor"
    },
    {
      "inputs": [
        {
          "internalType": "address",
          "name": "target",
          "type": "address"
        }
      ],
      "name": "AddressEmptyCode",
      "type": "error"
    },
    {
      "inputs": [
        {
          "internalType": "address",
          "name": "account",
          "type": "address"
        }
      ],
      "name": "AddressInsufficientBalance",
      "type": "error"
    },
    {
      "inputs": [],
      "name": "FailedInnerCall",
      "type": "error"
    },
    {
      "inputs": [
        {
          "internalType": "address",
          "name": "owner",
          "type": "address"
        }
      ],
      "name": "OwnableInvalidOwner",
      "type": "error"
    },
    {
      "inputs": [
        {
          "internalType": "address",
          "name": "account",
          "type": "address"
        }
      ],
      "name": "OwnableUnauthorizedAccount",
      "type": "error"
    },
    {
      "inputs": [
        {
          "internalType": "address",
          "name": "token",
          "type": "address"
        }
      ],
      "name": "SafeERC20FailedOperation",
      "type": "error"
    },
    {
      "anonymous": false,
      "inputs": [
        {
          "indexed": true,
          "internalType": "address",
          "name": "user",
          "type": "address"
        },
        {
          "indexed": true,
          "internalType": "uint256",
          "name": "id",
          "type": "uint256"
        }
      ],
      "name": "AutoBuy",
      "type": "event"
    },
    {
      "anonymous": false,
      "inputs": [
        {
          "indexed": true,
          "internalType": "address",
          "name": "user",
          "type": "address"
        },
        {
          "indexed": true,
          "internalType": "uint256",
          "name": "id",
          "type": "uint256"
        }
      ],
      "name": "AutoSell",
      "type": "event"
    },
    {
      "anonymous": false,
      "inputs": [
        {
          "indexed": true,
          "internalType": "address",
          "name": "user",
          "type": "address"
        },
        {
          "indexed": true,
          "internalType": "uint256",
          "name": "id",
          "type": "uint256"
        }
      ],
      "name": "AutoStoploss",
      "type": "event"
    },
    {
      "anonymous": false,
      "inputs": [
        {
          "indexed": true,
          "internalType": "address",
          "name": "user",
          "type": "address"
        },
        {
          "indexed": true,
          "internalType": "uint256",
          "name": "id",
          "type": "uint256"
        }
      ],
      "name": "AutoTakeProfit",
      "type": "event"
    },
    {
      "anonymous": false,
      "inputs": [
        {
          "indexed": true,
          "internalType": "address",
          "name": "user",
          "type": "address"
        },
        {
          "indexed": true,
          "internalType": "uint256",
          "name": "id",
          "type": "uint256"
        }
      ],
      "name": "CancelLimitOrder",
      "type": "event"
    },
    {
      "anonymous": false,
      "inputs": [
        {
          "indexed": true,
          "internalType": "address",
          "name": "user",
          "type": "address"
        },
        {
          "indexed": true,
          "internalType": "uint256",
          "name": "id",
          "type": "uint256"
        }
      ],
      "name": "CreateLimitOrder",
      "type": "event"
    },
    {
      "anonymous": false,
      "inputs": [
        {
          "indexed": true,
          "internalType": "address",
          "name": "previousOwner",
          "type": "address"
        },
        {
          "indexed": true,
          "internalType": "address",
          "name": "newOwner",
          "type": "address"
        }
      ],
      "name": "OwnershipTransferred",
      "type": "event"
    },
    {
      "anonymous": false,
      "inputs": [
        {
          "indexed": true,
          "internalType": "address",
          "name": "user",
          "type": "address"
        },
        {
          "indexed": true,
          "internalType": "uint256",
          "name": "id",
          "type": "uint256"
        },
        {
          "indexed": false,
          "internalType": "uint256",
          "name": "priceEntry",
          "type": "uint256"
        },
        {
          "indexed": false,
          "internalType": "uint256",
          "name": "priceTakeProfit",
          "type": "uint256"
        },
        {
          "indexed": false,
          "internalType": "uint256",
          "name": "priceStopLoss",
          "type": "uint256"
        }
      ],
      "name": "UpdateLimit",
      "type": "event"
    },
    {
      "inputs": [],
      "name": "FEE_RATE",
      "outputs": [
        {
          "internalType": "uint48",
          "name": "",
          "type": "uint48"
        }
      ],
      "stateMutability": "view",
      "type": "function"
    },
    {
      "inputs": [],
      "name": "FEE_RATE_PRECISION",
      "outputs": [
        {
          "internalType": "uint48",
          "name": "",
          "type": "uint48"
        }
      ],
      "stateMutability": "view",
      "type": "function"
    },
    {
      "inputs": [],
      "name": "FEE_RATE_TPSL",
      "outputs": [
        {
          "internalType": "uint48",
          "name": "",
          "type": "uint48"
        }
      ],
      "stateMutability": "view",
      "type": "function"
    },
    {
      "inputs": [],
      "name": "SLIPPAGE_PRECISION",
      "outputs": [
        {
          "internalType": "uint48",
          "name": "",
          "type": "uint48"
        }
      ],
      "stateMutability": "view",
      "type": "function"
    },
    {
      "inputs": [
        {
          "internalType": "address",
          "name": "token",
          "type": "address"
        }
      ],
      "name": "assetPrice",
      "outputs": [
        {
          "internalType": "uint256",
          "name": "amountOut",
          "type": "uint256"
        }
      ],
      "stateMutability": "view",
      "type": "function"
    },
    {
      "inputs": [
        {
          "internalType": "uint256",
          "name": "id",
          "type": "uint256"
        },
        {
          "internalType": "address[]",
          "name": "path",
          "type": "address[]"
        }
      ],
      "name": "autoBuy",
      "outputs": [],
      "stateMutability": "nonpayable",
      "type": "function"
    },
    {
      "inputs": [
        {
          "internalType": "uint256",
          "name": "id",
          "type": "uint256"
        },
        {
          "internalType": "address[]",
          "name": "path",
          "type": "address[]"
        }
      ],
      "name": "autoSell",
      "outputs": [],
      "stateMutability": "nonpayable",
      "type": "function"
    },
    {
      "inputs": [
        {
          "internalType": "uint256",
          "name": "id",
          "type": "uint256"
        },
        {
          "internalType": "address[]",
          "name": "path",
          "type": "address[]"
        }
      ],
      "name": "autoStoploss",
      "outputs": [],
      "stateMutability": "nonpayable",
      "type": "function"
    },
    {
      "inputs": [
        {
          "internalType": "uint256",
          "name": "id",
          "type": "uint256"
        },
        {
          "internalType": "address[]",
          "name": "path",
          "type": "address[]"
        }
      ],
      "name": "autoTakeProfit",
      "outputs": [],
      "stateMutability": "nonpayable",
      "type": "function"
    },
    {
      "inputs": [
        {
          "internalType": "uint256",
          "name": "id",
          "type": "uint256"
        }
      ],
      "name": "cancelLimitOrder",
      "outputs": [],
      "stateMutability": "nonpayable",
      "type": "function"
    },
    {
      "inputs": [
        {
          "internalType": "uint48",
          "name": "feeRate",
          "type": "uint48"
        }
      ],
      "name": "changeFeeRate",
      "outputs": [],
      "stateMutability": "nonpayable",
      "type": "function"
    },
    {
      "inputs": [
        {
          "internalType": "uint48",
          "name": "feeRate",
          "type": "uint48"
        }
      ],
      "name": "changeFeeRateTPSL",
      "outputs": [],
      "stateMutability": "nonpayable",
      "type": "function"
    },
    {
      "inputs": [
        {
          "internalType": "enum Request.Side",
          "name": "side",
          "type": "uint8"
        },
        {
          "internalType": "address",
          "name": "tokenUse",
          "type": "address"
        },
        {
          "internalType": "address",
          "name": "tokenInteract",
          "type": "address"
        },
        {
          "internalType": "uint256",
          "name": "amountEntry",
          "type": "uint256"
        },
        {
          "internalType": "uint256",
          "name": "priceEntry",
          "type": "uint256"
        },
        {
          "internalType": "uint256",
          "name": "priceTakeProfit",
          "type": "uint256"
        },
        {
          "internalType": "uint256",
          "name": "priceStopLoss",
          "type": "uint256"
        },
        {
          "internalType": "uint256",
          "name": "slippage",
          "type": "uint256"
        }
      ],
      "name": "createLimitOrder",
      "outputs": [],
      "stateMutability": "nonpayable",
      "type": "function"
    },
    {
      "inputs": [
        {
          "internalType": "uint256",
          "name": "value",
          "type": "uint256"
        },
        {
          "internalType": "uint256",
          "name": "slippage",
          "type": "uint256"
        }
      ],
      "name": "downSlippage",
      "outputs": [
        {
          "internalType": "uint256",
          "name": "",
          "type": "uint256"
        }
      ],
      "stateMutability": "pure",
      "type": "function"
    },
    {
      "inputs": [
        {
          "internalType": "address",
          "name": "",
          "type": "address"
        }
      ],
      "name": "fees",
      "outputs": [
        {
          "internalType": "uint256",
          "name": "",
          "type": "uint256"
        }
      ],
      "stateMutability": "view",
      "type": "function"
    },
    {
      "inputs": [
        {
          "internalType": "uint256",
          "name": "amountIn",
          "type": "uint256"
        },
        {
          "internalType": "address",
          "name": "tokenIn",
          "type": "address"
        },
        {
          "internalType": "address",
          "name": "tokenOut",
          "type": "address"
        }
      ],
      "name": "getPriceTokenByIlluminex",
      "outputs": [
        {
          "internalType": "uint256",
          "name": "",
          "type": "uint256"
        }
      ],
      "stateMutability": "view",
      "type": "function"
    },
    {
      "inputs": [
        {
          "internalType": "address",
          "name": "",
          "type": "address"
        }
      ],
      "name": "numOrder",
      "outputs": [
        {
          "internalType": "uint256",
          "name": "",
          "type": "uint256"
        }
      ],
      "stateMutability": "view",
      "type": "function"
    },
    {
      "inputs": [],
      "name": "numUser",
      "outputs": [
        {
          "internalType": "uint256",
          "name": "",
          "type": "uint256"
        }
      ],
      "stateMutability": "view",
      "type": "function"
    },
    {
      "inputs": [
        {
          "internalType": "address",
          "name": "",
          "type": "address"
        },
        {
          "internalType": "uint256",
          "name": "",
          "type": "uint256"
        }
      ],
      "name": "orders",
      "outputs": [
        {
          "internalType": "uint256",
          "name": "id",
          "type": "uint256"
        },
        {
          "internalType": "enum Request.Side",
          "name": "side",
          "type": "uint8"
        },
        {
          "internalType": "address",
          "name": "tokenUse",
          "type": "address"
        },
        {
          "internalType": "address",
          "name": "tokenInteract",
          "type": "address"
        },
        {
          "internalType": "uint256",
          "name": "amountEntry",
          "type": "uint256"
        },
        {
          "internalType": "uint256",
          "name": "priceEntry",
          "type": "uint256"
        },
        {
          "internalType": "uint256",
          "name": "amountPhase1",
          "type": "uint256"
        },
        {
          "internalType": "uint256",
          "name": "priceTakeProfit",
          "type": "uint256"
        },
        {
          "internalType": "uint256",
          "name": "priceStopLoss",
          "type": "uint256"
        },
        {
          "internalType": "uint256",
          "name": "amountPhase2",
          "type": "uint256"
        },
        {
          "internalType": "uint256",
          "name": "slippage",
          "type": "uint256"
        },
        {
          "internalType": "uint48",
          "name": "feeRate",
          "type": "uint48"
        },
        {
          "internalType": "enum Request.Status",
          "name": "status",
          "type": "uint8"
        },
        {
          "internalType": "uint256",
          "name": "timestamp",
          "type": "uint256"
        }
      ],
      "stateMutability": "view",
      "type": "function"
    },
    {
      "inputs": [],
      "name": "owner",
      "outputs": [
        {
          "internalType": "address",
          "name": "",
          "type": "address"
        }
      ],
      "stateMutability": "view",
      "type": "function"
    },
    {
      "inputs": [],
      "name": "renounceOwnership",
      "outputs": [],
      "stateMutability": "nonpayable",
      "type": "function"
    },
    {
      "inputs": [
        {
          "internalType": "address",
          "name": "newOwner",
          "type": "address"
        }
      ],
      "name": "transferOwnership",
      "outputs": [],
      "stateMutability": "nonpayable",
      "type": "function"
    },
    {
      "inputs": [
        {
          "internalType": "uint256",
          "name": "value",
          "type": "uint256"
        },
        {
          "internalType": "uint256",
          "name": "slippage",
          "type": "uint256"
        }
      ],
      "name": "upSlippage",
      "outputs": [
        {
          "internalType": "uint256",
          "name": "",
          "type": "uint256"
        }
      ],
      "stateMutability": "pure",
      "type": "function"
    },
    {
      "inputs": [
        {
          "internalType": "uint256",
          "name": "id",
          "type": "uint256"
        },
        {
          "internalType": "uint256",
          "name": "priceEntry",
          "type": "uint256"
        },
        {
          "internalType": "uint256",
          "name": "priceTakeProfit",
          "type": "uint256"
        },
        {
          "internalType": "uint256",
          "name": "priceStoploss",
          "type": "uint256"
        }
      ],
      "name": "updateLimitPrice",
      "outputs": [],
      "stateMutability": "nonpayable",
      "type": "function"
    },
    {
      "inputs": [
        {
          "internalType": "uint256",
          "name": "",
          "type": "uint256"
        }
      ],
      "name": "users",
      "outputs": [
        {
          "internalType": "address",
          "name": "",
          "type": "address"
        }
      ],
      "stateMutability": "view",
      "type": "function"
    },
    {
      "inputs": [
        {
          "internalType": "address",
          "name": "token",
          "type": "address"
        },
        {
          "internalType": "address",
          "name": "receiver",
          "type": "address"
        }
      ],
      "name": "withdrawFee",
      "outputs": [],
      "stateMutability": "nonpayable",
      "type": "function"
    }
  ],
  "transactionHash": "0x58d89c35ec619f32374f44bbb12ddf7f995c0df3bc1a41810c8afc4411b11b88",
  "args": [
    "0xb539f1D01A437C7f30cAfC994e918F952dDc0bA2",
    "0x5b82acbDe21bda0E9E277BF29A0F84f8deB5F1A7",
    "0xeC240a739D04188D83E9125CECC2ea88fABd9B08",
    1000,
    2000
  ],
  "numDeployments": 3,
  "solcInputHash": "71db596d9dfec8030954883c5fd35720",
  "bytecode": "0x60e034620001b757601f62002d7738819003918201601f19168301916001600160401b03831184841017620001bc5780849260a094604052833981010312620001b7576200004d81620001d2565b906200005c60208201620001d2565b6200006a60408301620001d2565b6200008660806200007e60608601620001e7565b9401620001e7565b9133156200019e5760008054336001600160a01b0319821681178355604051979290916001600160a01b0316907f8be0079c531659141344cd1fd0a4f28419497f9722a3daafe3b4186f6b6457e09080a360c05260a05260805265ffffffffffff6bffffffffffff0000000000006006549260301b1692169060018060601b0319161717600655612b7b9081620001fc823960805181612131015260a05181818161148a01528181611845015281816118e801528181612009015281816122de015261260c015260c05181818161025101528181610299015281816102f40152818161035101528181610a96015281816113c10152818161176501528181611f1b015281816122060152818161253001526128130152f35b604051631e4fbdf760e01b815260006004820152602490fd5b600080fd5b634e487b7160e01b600052604160045260246000fd5b51906001600160a01b0382168203620001b757565b519065ffffffffffff82168203620001b75756fe6080604052600436101561001257600080fd5b6000803560e01c8063069518e114611bf85780630c9ab77614611bc05780631386594c14611ae35780631e980be6146112d35780632d11c58a146112ad5780632e9d56ae1461115f578063365b98b21461112c5780634535106014610f38578063453943f0146106d85780635571608714610f06578063715018a614610ead578063793b8c6d14610d71578063801b093014610d315780638da5cb5b14610d0b57806391fe906714610cdb578063a000f34d14610c83578063a5cdc8fc14610a15578063a8cac06114610828578063ae180d08146107ff578063b883b058146107d3578063c879c6d814610781578063e3e1f00114610763578063f2fde38b146106dd578063f4ca4d1d146106d8578063f67670a6146101755763faaebd211461013b57600080fd5b346101725760203660031901126101725760406020916001600160a01b03610161611c36565b168152600583522054604051908152f35b80fd5b50346101725761010036600319011261017257600560043510156101725761019b611c4c565b6101a3611c62565b3383526001602052604083206101b981546121aa565b90553383526001602052604083205491600183146106a7575b6040516323b872dd60e01b60208201523360248201523060448201526064803581830152815260a0810167ffffffffffffffff81118282101761069357604052610225906001600160a01b038316612a44565b604051635a0f4c8d60e11b81526001600160a01b03821660048201526020816024816001600160a01b037f0000000000000000000000000000000000000000000000000000000000000000165afa90811561061f578591610664575b5060405163095ea7b360e01b81526001600160a01b037f0000000000000000000000000000000000000000000000000000000000000000166004820152606435602482015260208180604481010381896001600160a01b0387165af180156106595761062a575b50846001600160a01b037f0000000000000000000000000000000000000000000000000000000000000000163b1561017257604051632e0a8aaf60e11b81526001600160a01b0392831660048201526064803560248301523060448301529092839190829084907f0000000000000000000000000000000000000000000000000000000000000000165af1801561061f5761060c575b506006549165ffffffffffff83169160009360036004351480156105fd575b6105ea575b50604051936101c0850185811067ffffffffffffffff8211176105d4576040528585526105c05765ffffffffffff92916001600160a01b0380926004356020880152166040860152166060840152606435608084015260843560a08401528460c084015260a43560e084015260c4356101008401528461012084015260e435610140840152166101608201526001610180820152426101a0820152338352600260205260408320828452602052604083209080518255602081015160058110156105ac5760018301547fffffffffffffffffffffff00000000000000000000000000000000000000000060ff74ffffffffffffffffffffffffffffffffffffffff00604086015160081b169316911617176001830155600282016001600160a01b036060830151166001600160a01b03198254161790556080810151600383015560a0810151600483015560c0810151600583015560e08101516006830155610100810151600783015561012081015160088301556101408101516009830155600a820165ffffffffffff61016083015116815490610180840151600781101561059857916101a0939166ff000000000000600b969460301b169166ffffffffffffff1916171790550151910155337f8916c66051e06090869f22b336ece05d8d0301e37c1117d0127ad67bc06b1dda8380a380f35b634e487b7160e01b88526021600452602488fd5b634e487b7160e01b85526021600452602485fd5b634e487b7160e01b86526021600452602486fd5b634e487b7160e01b600052604160045260246000fd5b60301c65ffffffffffff169250386103a2565b5060009450600480351461039d565b61061890949194611dea565b923861037e565b6040513d87823e3d90fd5b61064b9060203d602011610652575b6106438183611dfe565b8101906121b9565b50386102e8565b503d610639565b6040513d88823e3d90fd5b610686915060203d60201161068c575b61067e8183611dfe565b810190611e20565b38610281565b503d610674565b634e487b7160e01b86526041600452602486fd5b6003548452600460205260408420336001600160a01b03198254161790556106d06003546121aa565b6003556101d2565b611cdc565b5034610172576020366003190112610172576106f7611c36565b6106ff6129dc565b6001600160a01b0380911690811561074a578254826001600160a01b03198216178455167f8be0079c531659141344cd1fd0a4f28419497f9722a3daafe3b4186f6b6457e08380a380f35b604051631e4fbdf760e01b815260048101849052602490fd5b50346101725780600319360112610172576020600354604051908152f35b5034610172576040366003190112610172576107d061079e611c36565b6001600160a01b036107ae611c4c565b916107b76129dc565b1690818452600560205260408420918483549355612a08565b80f35b50346101725760203660031901126101725760206107f76107f2611c36565b6120e6565b604051908152f35b5034610172578060031936011261017257602065ffffffffffff60065460301c16604051908152f35b50346101725761083736611c8c565b903384526002602052604084208385526020526040842090600a82019060ff825460301c16600781101561099d5760016108719114611d41565b600183019384549460ff86166005811015610a0157600281149081156109f6575b50156109b1576005946108fb60ff936001600160a01b03809960081c16906108b9826120e6565b966108e5600486015498620f42406108dd6108d760098a0154611dd9565b8c611d2e565b041115611d8d565b60028501978b895416600387015490309561251c565b95869101555416600581101561099d5780600460029214610981575b14610947575b8585337ff8afdb3e3714018375434c80f97012e3f5ffadda6f0945faf5790fb41fd2bf218380a380f35b6109789365ffffffffffff91835493660300000000000066ff0000000000001986161790555416911691339161280d565b3880808061091d565b835466ff00000000000019166602000000000000178455610917565b634e487b7160e01b87526021600452602487fd5b60405162461bcd60e51b815260206004820152600c60248201527f496e76616c6964207369646500000000000000000000000000000000000000006044820152606490fd5b600491501438610892565b634e487b7160e01b89526021600452602489fd5b503461017257602080600319360112610c7f5760043590338352600281526040832082845281526040832090600a8201805460ff8160301c16600781101561099d5790610a6c600166060000000000009314611d41565b66ff00000000000019161790556001600160a01b03600381600185015460081c16930154908580917f00000000000000000000000000000000000000000000000000000000000000008181169160405190635a0f4c8d60e11b82528860048301528782602481875afa91821561061f57889188918794610c5e575b5060405163095ea7b360e01b81526001600160a01b03909516600486015260248501919091529192918290818781604481015b039287165af18015610c5357610c36575b50813b15610c325760405163b68f434560e01b81526001600160a01b039190911660048201526024810185905233604482015291908290606490829084905af18015610c2757610c16575b5080620f424093600585610b8a8487611d2e565b049187845252610b9f60408320918254611d21565b9055610c02575081810290808204831490151715610bee5790610bc6929104903390612a08565b337f6274082a37d82a5bde684459b454ab33a9a3acad18f41ee1d7d95dff44a409798380a380f35b634e487b7160e01b85526011600452602485fd5b634e487b7160e01b81526011600452602490fd5b610c209150611dea565b8438610b76565b6040513d89823e3d90fd5b8280fd5b610c4c90873d8911610652576106438183611dfe565b5038610b2b565b6040513d86823e3d90fd5b610b1a9450610c7990843d861161068c5761067e8183611dfe565b93610ae7565b5080fd5b50346101725760203660031901126101725760043565ffffffffffff81168103610c7f57610caf6129dc565b6bffffffffffff0000000000006006549160301b16906bffffffffffff00000000000019161760065580f35b50346101725760603660031901126101725760206107f7610cfa611c4c565b610d02611c62565b90600435611ef5565b50346101725780600319360112610172576001600160a01b036020915416604051908152f35b50346101725760203660031901126101725760043565ffffffffffff8116809103610c7f57610d5e6129dc565b65ffffffffffff19600654161760065580f35b5034610172576040366003190112610172576001600160a01b03610d93611c36565b168152600260205260408120602435825260205260408120908154906001830154906001600160a01b0360028501541660038501546004860154600587015460068801549060078901549260088a01549460098b015496600b600a8d01549c0154996040519b8c52600560ff82161015610e9957808c602060ff6001600160a01b03941691015260081c1660408c015260608b015260808a015260a089015260c088015260e087015261010086015261012085015261014084015265ffffffffffff8416610160840152600760ff8560301c161015610e85575060ff6101c09360301c166101808301526101a0820152f35b634e487b7160e01b81526021600452602490fd5b634e487b7160e01b8a52602160045260248afd5b5034610172578060031936011261017257610ec66129dc565b806001600160a01b0381546001600160a01b031981168355167f8be0079c531659141344cd1fd0a4f28419497f9722a3daafe3b4186f6b6457e08280a380f35b5034610172576020620f4240610f2f610f29610f2136611c1b565b919091611dd9565b90611d2e565b04604051908152f35b503461017257610f4736611c8c565b90338452600260205260408420838552602052604084206001810190815460ff8116600581101561059857600314611073575b5081549260ff8416600581101561059857600414610fbd575b8686337f0635ca108206e3fc30d61974df709ef526a4831e943d076c40c7439a4d84c7018380a380f35b600a82019460ff865460301c166007811015610a01579261103c60089693611069989693610ff4600265ffffffffffff9814611d41565b6001600160a01b0380968a1c169161102761100e846120e6565b620f42406108dd6007890154610f2960098b0154611dd9565b866002860154169260058601549030946121f5565b9586910155835493660400000000000066ff0000000000001986161790555460081c16911691339161280d565b3880808080610f93565b600a820160ff815460301c166007811015610a0157906110996002611126949314611d41565b65ffffffffffff6110f66001600160a01b039389898660028a0154166110e36110c1826120e6565b620f42406110db8d610f2960096007830154920154611cfa565b041015611d8d565b60058a01549088309560081c16906121f5565b92836008870155825492660400000000000066ff000000000000198516179055865460081c16911691339161280d565b38610f7a565b5034610172576020366003190112610172576001600160a01b036040602092600435815260048452205416604051908152f35b50346101725761116e36611c8c565b9033845260026020526040842083855260205260408420600a81019160ff835460301c16600781101561099d5760059392916111ae600160ff9314611d41565b600283019261120b6001600160a01b039788865416906111cd826120e6565b946111f1600486015496620f42406110db6111eb60098a0154611cfa565b8a611d2e565b60018501958b875460081c1693600387015490309561251c565b95869101555416600581101561099d5780600360019214611291575b14611257575b8585337f33752c867c8d347e86d556f975e1604fe949fda15b33b6c127add24442b09fe38380a380f35b6112889365ffffffffffff91835493660300000000000066ff0000000000001986161790555416911691339161280d565b3880808061122d565b835466ff00000000000019166602000000000000178455611227565b5034610172578060031936011261017257602065ffffffffffff60065416604051908152f35b5034610172576112e236611c8c565b903384526002602052604084208385526020526040842090600182015460ff8116600581101561099d57600314611702575b5060018201549060ff8216600581101561099d5760041461135a575b8585337fc11ac46609bae43a6e10bea66f62f087f80eca3f9fd649c7cfa51ab9050802e08380a380f35b600a83019160ff835460301c16600781101561059857600261137c9114611d41565b6001600160a01b03809160081c16946113b0611397876120e6565b620f42406110db6006890154610f2960098b0154611cfa565b8160028601541692600586015491837f00000000000000000000000000000000000000000000000000000000000000001694604051635a0f4c8d60e11b9182825260048201526024998c6020838d818c5afa9283156116f5578c91936116d5575b5060209293604051998a938492835260048301525afa9586156116ca578b966116a9575b508115611696578480611447856121e1565b16911690810361165d5760001982019582871161164a57858061147361146e8a87896121d1565b6121e1565b169116036116105760405163095ea7b360e01b81527f00000000000000000000000000000000000000000000000000000000000000006001600160a01b0381166004830152602482018690529490916020908390818f816044810103925af19182156116055783926115e6575b509285918c9a94938b96946040519c8d976338ed173960e01b895260a489019260048a015288015260a060448801525260c485019190865b8181106115b95750505083918286923060648301524260848301520393165af18015610c275761155d65ffffffffffff9360019261158e988b91611597575b50611e65565b5194856008820155845494660500000000000066ff000000000000198716179055015460081c16911691339161280d565b38808080611330565b6115b391503d808d833e6115ab8183611dfe565b810190611e79565b38611557565b9360209296508291959750926001936115d188611c78565b16815201940191019285918c95938b95611518565b6115fe9060203d602011610652576106438183611dfe565b50386114e0565b6040513d8e823e3d90fd5b60405162461bcd60e51b8152602060048201526013818b015272092dcecc2d8d2c840deeae8e0eae840e0c2e8d606b1b6044820152606490fd5b634e487b7160e01b8c526011600452898cfd5b60405162461bcd60e51b8152602060048201526012818b015271092dcecc2d8d2c840d2dce0eae840e0c2e8d60731b6044820152606490fd5b634e487b7160e01b8b526032600452888bfd5b6116c391965060203d60201161068c5761067e8183611dfe565b9438611435565b6040513d8d823e3d90fd5b602093506116ef90843d861161068c5761067e8183611dfe565b92611411565b50604051903d90823e3d90fd5b60ff600a84015460301c16600781101561099d5760026117229114611d41565b6001600160a01b0360028401541661175561173c826120e6565b620f42406108dd6006880154610f2960098a0154611dd9565b6005840154916001600160a01b037f0000000000000000000000000000000000000000000000000000000000000000169160405192635a0f4c8d60e11b918285526004850152602084602481845afa938415611ad8578a94611aa6575b509160246020926001600160a01b03946040519586948593845260081c1660048301525afa908115611a9b578891611a7c575b508515611a68576001600160a01b03806117fe866121e1565b169216918203611a2e5785600019810111611a1a576001600160a01b038061182e61146e6000198a018a896121d1565b169116036119df5760405163095ea7b360e01b81527f00000000000000000000000000000000000000000000000000000000000000006001600160a01b031660048201526024810183905290602090829060449082908b905af18015610c27576119c0575b5083604051916338ed173960e01b835260a4830190600484015287602484015260a0604484015252858160c4810184835b88811061199357505081903060648301524260848301520381836001600160a01b037f0000000000000000000000000000000000000000000000000000000000000000165af1908115610659576119739161192c918891611979575b50600019860190611e65565b51806008850155600a840154660500000000000066ff00000000000019821617600a86015565ffffffffffff6001600160a01b03600187015460081c16911691339161280d565b38611314565b61198d91503d808a833e6115ab8183611dfe565b38611920565b925092506020806001926001600160a01b036119ae87611c78565b168152019301910191839189936118c4565b6119d89060203d602011610652576106438183611dfe565b5038611893565b60405162461bcd60e51b8152602060048201526013602482015272092dcecc2d8d2c840deeae8e0eae840e0c2e8d606b1b6044820152606490fd5b634e487b7160e01b88526011600452602488fd5b60405162461bcd60e51b8152602060048201526012602482015271092dcecc2d8d2c840d2dce0eae840e0c2e8d60731b6044820152606490fd5b634e487b7160e01b88526032600452602488fd5b611a95915060203d60201161068c5761067e8183611dfe565b386117e5565b6040513d8a823e3d90fd5b6001600160a01b0393919450602092611acd602492853d871161068c5761067e8183611dfe565b9592945092506117b2565b6040513d8c823e3d90fd5b5034610172576080366003190112610172576004356024353383526002602052604083208284526020526040832090600482019081548103611b67575b5054906007600682015491015490604051928352602083015260408201527f629c982929f9ace001424a71a01d3ae049808c90481b6d716cf4bd5e87c39afb60603392a380f35b60ff600a84015460301c1660078110156105c0578060016002921492611b8c84611d41565b845514908115611bb8575b50611ba3575b38611b20565b60643560078301556044356006830155611b9d565b905038611b97565b50346101725760203660031901126101725760406020916001600160a01b03611be7611c36565b168152600183522054604051908152f35b5034610172576020620f4240610f2f610f29611c1336611c1b565b919091611cfa565b6040906003190112611c31576004359060243590565b600080fd5b600435906001600160a01b0382168203611c3157565b602435906001600160a01b0382168203611c3157565b604435906001600160a01b0382168203611c3157565b35906001600160a01b0382168203611c3157565b6040600319820112611c31576004359160243567ffffffffffffffff92838211611c315780602383011215611c31578160040135938411611c315760248460051b83010111611c31576024019190565b34611c31576000366003190112611c31576020604051620f42408152f35b90620f4240918201809211611d0b57565b634e487b7160e01b600052601160045260246000fd5b91908201809211611d0b57565b81810292918115918404141715611d0b57565b15611d4857565b60405162461bcd60e51b815260206004820152600e60248201527f496e76616c6964207374617475730000000000000000000000000000000000006044820152606490fd5b15611d9457565b60405162461bcd60e51b815260206004820152600d60248201527f496e76616c6964207072696365000000000000000000000000000000000000006044820152606490fd5b90620f4240918203918211611d0b57565b67ffffffffffffffff81116105d457604052565b90601f8019910116810190811067ffffffffffffffff8211176105d457604052565b90816020910312611c3157516001600160a01b0381168103611c315790565b805160011015611e4f5760400190565b634e487b7160e01b600052603260045260246000fd5b8051821015611e4f5760209160051b010190565b906020908183820312611c3157825167ffffffffffffffff93848211611c31570181601f82011215611c315780519384116105d4578360051b9060405194611ec385840187611dfe565b85528380860192820101928311611c31578301905b828210611ee6575050505090565b81518152908301908301611ed8565b60408051635a0f4c8d60e11b8082526001600160a01b03948516600483015291959490927f000000000000000000000000000000000000000000000000000000000000000085169290916020918286602481885afa9485156120db5787966000966120b3575b508392916024918b51998a94859384521660048301525afa9485156120a857600095612089575b508651946060860186811067ffffffffffffffff8211176105d4578852600286528186019388368637865115611e4f57851684529194929184611fc485611e3f565b91169052865194859363d06ca61f60e01b8552604485019160048601528860248601525180915260648401929160005b828110612070575050505091818060009403917f0000000000000000000000000000000000000000000000000000000000000000165afa9081156120655761204692935060009161204a575b50611e3f565b5190565b61205f91503d806000833e6115ab8183611dfe565b38612040565b83513d6000823e3d90fd5b8351871685528795509381019392810192600101611ff4565b816120a19296503d871161068c5761067e8183611dfe565b9338611f82565b87513d6000823e3d90fd5b6024919650916120d1859493853d871161068c5761067e8183611dfe565b9691509192611f5b565b89513d6000823e3d90fd5b60405163313ce56760e01b815260006020826004816001600160a01b0387165afa9182156116f5578192612168575b505090600660ff61215693161460001461215957620f4240905b7f000000000000000000000000000000000000000000000000000000000000000091611ef5565b90565b670de0b6b3a76400009061212f565b9091506020813d6020116121a2575b8161218460209383611dfe565b81010312610c7f57519060ff821682036101725750600660ff612115565b3d9150612177565b6000198114611d0b5760010190565b90816020910312611c3157518015158103611c315790565b9190811015611e4f5760051b0190565b356001600160a01b0381168103611c315790565b94919095926001600160a01b0392837f00000000000000000000000000000000000000000000000000000000000000001695604096875190635a0f4c8d60e11b918281528760049b168b82015260209260249284838581845afa9283156125115785928e9f928e9f8d9e9f88949d9e9d6000986124f2575b50519e8f958694855216908301525afa9889156124e7576000996124c8575b5083156124b457868061229e886121e1565b16911690810361247d57600019840198848a116124695787806122c561146e8d898c6121d1565b16911603612431579a61232f9183898d9e60009b9c9d9e7f00000000000000000000000000000000000000000000000000000000000000009c8d915180988195829463095ea7b360e01b84528a8401602090939291936001600160a01b0360408201951681520152565b03925af1908115612426578593600092612409575b509997959491905060008d999799519a8b996338ed173960e01b8b5260a48b01938b015289015260a060448901525260c48601969160005b8281106123db57505050508184600096819488941660648301524260848301520393165af19081156123d0576120469394506000916123bb5750611e65565b6115b391503d806000833e6115ab8183611dfe565b84513d6000823e3d90fd5b91939496509194968280600192896123f28a611c78565b16815201960191019188969493919297959761237c565b61241f90863d8811610652576106438183611dfe565b5038612344565b8d513d6000823e3d90fd5b8a5162461bcd60e51b8152808d0184905260138184015272092dcecc2d8d2c840deeae8e0eae840e0c2e8d606b1b6044820152606490fd5b8260118e634e487b7160e01b600052526000fd5b8a5162461bcd60e51b8152808d0184905260128184015271092dcecc2d8d2c840d2dce0eae840e0c2e8d60731b6044820152606490fd5b50634e487b7160e01b600090815260328c52fd5b6124e0919950833d851161068c5761067e8183611dfe565b973861228c565b8b513d6000823e3d90fd5b61250a919850873d891161068c5761067e8183611dfe565b963861226d565b8c513d6000823e3d90fd5b95969390969492946001600160a01b0393847f00000000000000000000000000000000000000000000000000000000000000001660409788519a8b92635a0f4c8d60e11b908185528960049d168d86015260208560248297845afa9d8e1561251157928d9e9286928e9f8d9e9f9660009e9d9e966127e9575b50602493949596519e8f958694855216908301525afa9889156124e7576000996127ca575b5083156127b55786806125cc886121e1565b16911690810361277d57600019840198848a116127685787806125f361146e8d898c6121d1565b1691160361272f579a61265d9183898d9e60009b9c9d9e7f00000000000000000000000000000000000000000000000000000000000000009c8d915180988195829463095ea7b360e01b84528a8401602090939291936001600160a01b0360408201951681520152565b03925af1928315612426578593612712575b5098969493908c98969851998a986338ed173960e01b8a5260a48a01928a0152602489015260a060448901525260c48601969160005b8281106126e457505050508184600096819488941660648301524260848301520393165af19081156123d0576120469394506000916123bb5750611e65565b91939496509194968280600192896126fb8a611c78565b1681520196019101918896949391929795976126a5565b61272890853d8711610652576106438183611dfe565b503861266f565b8a5162461bcd60e51b8152808d018490526013602482015272092dcecc2d8d2c840deeae8e0eae840e0c2e8d606b1b6044820152606490fd5b60118d634e487b7160e01b6000525260246000fd5b8a5162461bcd60e51b8152808d018490526012602482015271092dcecc2d8d2c840d2dce0eae840e0c2e8d60731b6044820152606490fd5b60328c634e487b7160e01b6000525260246000fd5b6127e2919950833d851161068c5761067e8183611dfe565b97386125ba565b85965061280590602495963d891161068c5761067e8183611dfe565b959493612595565b909293917f0000000000000000000000000000000000000000000000000000000000000000946001600160a01b039283871696604090815190635a0f4c8d60e11b8252818760009516978860048301528b82602460209687935afa9182156129d25784918c9188946129b1575b50865163095ea7b360e01b81526001600160a01b03909516600486015260248501919091529192918290818881604481015b039287165af180156129a75761298a575b50893b1561298657825163b68f434560e01b81526001600160a01b039182166004820152602481018a905290861660448201529883908a90606490829084905af198891561297a576129409596979899612967575b50620f42409465ffffffffffff94851692600587612930868e611d2e565b04938a8752528420918254611d21565b9055830390828211610c0257509561295e9161296596971690611d2e565b0491612a08565b565b61297390939193611dea565b9138612912565b505051903d90823e3d90fd5b8380fd5b6129a090833d8511610652576106438183611dfe565b50386128bd565b84513d87823e3d90fd5b6128ac94506129cc90843d861161068c5761067e8183611dfe565b9361287a565b85513d88823e3d90fd5b6001600160a01b036000541633036129f057565b60405163118cdaa760e01b8152336004820152602490fd5b60405163a9059cbb60e01b60208201526001600160a01b0392909216602483015260448083019390935291815261296591612a44606483611dfe565b6001600160a01b031690600080826020829451910182865af13d15612afe573d67ffffffffffffffff8111612aea57604051612aa1939291612a90601f8201601f191660200183611dfe565b8152809260203d92013e5b83612b0b565b8051908115159182612acf575b5050612ab75750565b60249060405190635274afe760e01b82526004820152fd5b612ae292506020809183010191016121b9565b153880612aae565b634e487b7160e01b83526041600452602483fd5b612aa19150606090612a9b565b90612b325750805115612b2057805190602001fd5b604051630a12f52160e11b8152600490fd5b81511580612b65575b612b43575090565b604051639996b31560e01b81526001600160a01b039091166004820152602490fd5b50803b15612b3b56fea164736f6c6343000818000a",
  "devdoc": {
    "errors": {
      "AddressEmptyCode(address)": [
        {
          "details": "There's no code at `target` (it is not a contract)."
        }
      ],
      "AddressInsufficientBalance(address)": [
        {
          "details": "The ETH balance of the account is not enough to perform the operation."
        }
      ],
      "FailedInnerCall()": [
        {
          "details": "A call to an address target failed. The target may have reverted."
        }
      ],
      "OwnableInvalidOwner(address)": [
        {
          "details": "The owner is not a valid owner account. (eg. `address(0)`)"
        }
      ],
      "OwnableUnauthorizedAccount(address)": [
        {
          "details": "The caller account is not authorized to perform an operation."
        }
      ],
      "SafeERC20FailedOperation(address)": [
        {
          "details": "An operation with an ERC20 token failed."
        }
      ]
    },
    "kind": "dev",
    "methods": {
      "owner()": {
        "details": "Returns the address of the current owner."
      },
      "renounceOwnership()": {
        "details": "Leaves the contract without owner. It will not be possible to call `onlyOwner` functions. Can only be called by the current owner. NOTE: Renouncing ownership will leave the contract without an owner, thereby disabling any functionality that is only available to the owner."
      },
      "transferOwnership(address)": {
        "details": "Transfers ownership of the contract to a new account (`newOwner`). Can only be called by the current owner."
      }
    },
    "version": 1
  },
  "userdoc": {
    "kind": "user",
    "methods": {},
    "version": 1
  },
  "storageLayout": {
    "storage": [
      {
        "astId": 8,
        "contract": "contracts/AutoTrading.sol:AutoTrading",
        "label": "_owner",
        "offset": 0,
        "slot": "0",
        "type": "t_address"
      },
      {
        "astId": 1557,
        "contract": "contracts/AutoTrading.sol:AutoTrading",
        "label": "numOrder",
        "offset": 0,
        "slot": "1",
        "type": "t_mapping(t_address,t_uint256)"
      },
      {
        "astId": 1564,
        "contract": "contracts/AutoTrading.sol:AutoTrading",
        "label": "orders",
        "offset": 0,
        "slot": "2",
        "type": "t_mapping(t_address,t_mapping(t_uint256,t_struct(LimitOrder)1553_storage))"
      },
      {
        "astId": 1566,
        "contract": "contracts/AutoTrading.sol:AutoTrading",
        "label": "numUser",
        "offset": 0,
        "slot": "3",
        "type": "t_uint256"
      },
      {
        "astId": 1570,
        "contract": "contracts/AutoTrading.sol:AutoTrading",
        "label": "users",
        "offset": 0,
        "slot": "4",
        "type": "t_mapping(t_uint256,t_address)"
      },
      {
        "astId": 1574,
        "contract": "contracts/AutoTrading.sol:AutoTrading",
        "label": "fees",
        "offset": 0,
        "slot": "5",
        "type": "t_mapping(t_address,t_uint256)"
      },
      {
        "astId": 1582,
        "contract": "contracts/AutoTrading.sol:AutoTrading",
        "label": "FEE_RATE",
        "offset": 0,
        "slot": "6",
        "type": "t_uint48"
      },
      {
        "astId": 1584,
        "contract": "contracts/AutoTrading.sol:AutoTrading",
        "label": "FEE_RATE_TPSL",
        "offset": 6,
        "slot": "6",
        "type": "t_uint48"
      }
    ],
    "types": {
      "t_address": {
        "encoding": "inplace",
        "label": "address",
        "numberOfBytes": "20"
      },
      "t_enum(Side)2951": {
        "encoding": "inplace",
        "label": "enum Request.Side",
        "numberOfBytes": "1"
      },
      "t_enum(Status)2959": {
        "encoding": "inplace",
        "label": "enum Request.Status",
        "numberOfBytes": "1"
      },
      "t_mapping(t_address,t_mapping(t_uint256,t_struct(LimitOrder)1553_storage))": {
        "encoding": "mapping",
        "key": "t_address",
        "label": "mapping(address => mapping(uint256 => struct AutoTrading.LimitOrder))",
        "numberOfBytes": "32",
        "value": "t_mapping(t_uint256,t_struct(LimitOrder)1553_storage)"
      },
      "t_mapping(t_address,t_uint256)": {
        "encoding": "mapping",
        "key": "t_address",
        "label": "mapping(address => uint256)",
        "numberOfBytes": "32",
        "value": "t_uint256"
      },
      "t_mapping(t_uint256,t_address)": {
        "encoding": "mapping",
        "key": "t_uint256",
        "label": "mapping(uint256 => address)",
        "numberOfBytes": "32",
        "value": "t_address"
      },
      "t_mapping(t_uint256,t_struct(LimitOrder)1553_storage)": {
        "encoding": "mapping",
        "key": "t_uint256",
        "label": "mapping(uint256 => struct AutoTrading.LimitOrder)",
        "numberOfBytes": "32",
        "value": "t_struct(LimitOrder)1553_storage"
      },
      "t_struct(LimitOrder)1553_storage": {
        "encoding": "inplace",
        "label": "struct AutoTrading.LimitOrder",
        "members": [
          {
            "astId": 1524,
            "contract": "contracts/AutoTrading.sol:AutoTrading",
            "label": "id",
            "offset": 0,
            "slot": "0",
            "type": "t_uint256"
          },
          {
            "astId": 1527,
            "contract": "contracts/AutoTrading.sol:AutoTrading",
            "label": "side",
            "offset": 0,
            "slot": "1",
            "type": "t_enum(Side)2951"
          },
          {
            "astId": 1529,
            "contract": "contracts/AutoTrading.sol:AutoTrading",
            "label": "tokenUse",
            "offset": 1,
            "slot": "1",
            "type": "t_address"
          },
          {
            "astId": 1531,
            "contract": "contracts/AutoTrading.sol:AutoTrading",
            "label": "tokenInteract",
            "offset": 0,
            "slot": "2",
            "type": "t_address"
          },
          {
            "astId": 1533,
            "contract": "contracts/AutoTrading.sol:AutoTrading",
            "label": "amountEntry",
            "offset": 0,
            "slot": "3",
            "type": "t_uint256"
          },
          {
            "astId": 1535,
            "contract": "contracts/AutoTrading.sol:AutoTrading",
            "label": "priceEntry",
            "offset": 0,
            "slot": "4",
            "type": "t_uint256"
          },
          {
            "astId": 1537,
            "contract": "contracts/AutoTrading.sol:AutoTrading",
            "label": "amountPhase1",
            "offset": 0,
            "slot": "5",
            "type": "t_uint256"
          },
          {
            "astId": 1539,
            "contract": "contracts/AutoTrading.sol:AutoTrading",
            "label": "priceTakeProfit",
            "offset": 0,
            "slot": "6",
            "type": "t_uint256"
          },
          {
            "astId": 1541,
            "contract": "contracts/AutoTrading.sol:AutoTrading",
            "label": "priceStopLoss",
            "offset": 0,
            "slot": "7",
            "type": "t_uint256"
          },
          {
            "astId": 1543,
            "contract": "contracts/AutoTrading.sol:AutoTrading",
            "label": "amountPhase2",
            "offset": 0,
            "slot": "8",
            "type": "t_uint256"
          },
          {
            "astId": 1545,
            "contract": "contracts/AutoTrading.sol:AutoTrading",
            "label": "slippage",
            "offset": 0,
            "slot": "9",
            "type": "t_uint256"
          },
          {
            "astId": 1547,
            "contract": "contracts/AutoTrading.sol:AutoTrading",
            "label": "feeRate",
            "offset": 0,
            "slot": "10",
            "type": "t_uint48"
          },
          {
            "astId": 1550,
            "contract": "contracts/AutoTrading.sol:AutoTrading",
            "label": "status",
            "offset": 6,
            "slot": "10",
            "type": "t_enum(Status)2959"
          },
          {
            "astId": 1552,
            "contract": "contracts/AutoTrading.sol:AutoTrading",
            "label": "timestamp",
            "offset": 0,
            "slot": "11",
            "type": "t_uint256"
          }
        ],
        "numberOfBytes": "384"
      },
      "t_uint256": {
        "encoding": "inplace",
        "label": "uint256",
        "numberOfBytes": "32"
      },
      "t_uint48": {
        "encoding": "inplace",
        "label": "uint48",
        "numberOfBytes": "6"
      }
    }
  }
}